:100D9100495220776169740042004920657869747D
:100DA10065642074686520726F6F6D2021004300B7
:020E4700C102E6
:090E110054F0FFC31342A0D2A269
:010E1A0022B5
:100D7100E4FDFCC3ED9FEC9E5015E4FBFA0BBB00B8
:0F0D8100010AEB64704A70F50DBD00010C80E4AF
:010D90002240
:100DE800EF1FAC0670011E4C6005120E1A80F1222E
:050DB100C201751230C3
:100DB600C2A1C2A2A20192A053A087E512120E11EF
:090DC600C2A27F037E00020D7140
:100D0C00C2A1D2A2A20192A053A087E515120E1186
:100D1C00C2A2C2A1D2A2A20192A053A087E51554EF
:100D2C000FFF33333354F8120E16C2A27F037E002A
:030D3C00020D7134
:100C5A007F327E00120D71120DB1120DB1120DB15B
:100C6A00C20175122C120DB6C20175152C120D0C8B
:100C7A00C20175150C120D0CC201751506120D0C68
:100C8A00C201751514120D0CC201751501020D0C65
:040D3F007BFF7F8433
:100D43008B128A138914C2018F15801CAB12AA134C
:100D5300A914120AEC6016D2010514E514700205F9
:0E0D63001314F9120AECF515120D0C80DF22A4
:080E3F00C201751501020D0C42
:050DCF00C202850B11BA
:100DD400D2B6120E1A120E1A120E1AC2B67F327E32
:040DE40000020D718B
:03001300020C0CD0
:100C0C00C0E0C0F0C0D075D000C000C004C005C0AA
:100C1C0006C007AF8D7508008F09E509750900F549
:100C2C0008AF8BEF4209E4AE08AF09FC7D3A120B1A
:100C3C00058E0A8F0B758B00758D00D202D007D0F4
:0E0C4C0006D005D004D000D0D0D0F0D0E032D9
:100A4300E4F58DF58BD28E30B7FDC28EAF8DEFFE00
:100A5300AD8BEDFFC39434EE942B4003020AEAEF0F
:100A63009468EE94185003020AEAE4F58DF58BD2EC
:100A73008E20B7FDC28EAF8DEFFEAD8BEDFFC3941D
:100A830068EE9418505FEF9434EE940C4057E4FDF5
:100A9300E4F9FC30B7FDE4F58DF58BD28E20B7FD7C
:100AA300C28EAF8DEFFEAB8BEBFFC3941FEE9407AB
:100AB3005015EF9411EE9404400D7401A8040880BE
:100AC30002C333D8FC42010CBC08C8740C2DF8A631
:100AD300010DBD04BBE50DF4B50C08E50FF4B50E2F
:080AE30002D322C322C322C387
:010AEB0022E8
:090E1B00C290D292D291C293223E
:090E2400D290C292C291D2932235
:090E2D00D290D292C291C293222C
:090E3600C290C292D291D2932223
:030E0500120D715A
:090E0800C290C292C291C2932271
:100C9A003001047F0180027F00E5FCD394E6400422
:100CAA007E0180027E00EE5F600215FC2001047F57
:100CBA000180027F00E5FCC394F450047E018002A7
:090CCA007E00EE5F600205FC22D1
:100CD3003001047F0180027F00E5FDD394E64004E8
:100CE3007E0180027E00EE5F600215FD2001047F1D
:100CF3000180027F00E5FDC394F450047E0180026D
:090D03007E00EE5F600205FD2296
:0D0DF80075FBF475FCEE75FDF475FEF4223C
:10080000C200751110120C5A120DF8758912758CF0
:10081000B8758AB8D28C75DB4275DC4275DD4275DD
:10082000DE4275D90475D84030B7097A0D79911236
:100830000D3F80F4120E3F120A4350FBE50E120BDF
:100840005A08810708980808890908791508B41812
:1008500008711908A21C08694008C64308D7440853
:10086000BB5208915A00000837120E3F120E1B802F
:10087000C6120E3F120E2480BE120E3F120E0880CA
:10088000B6120E3F120E2D80AE120E3F120E3680A3
:10089000A6120E3FD2018005120E3FC201120C9A21
:1008A0008095120E3FE5FEB4F40575FEE68088756E
:1008B000FEF48083120E3FC2018005120E3FD2016A
:1008C000120CD3020837E5FBB4F40675FBEA020804
:1008D0003775FBF4020837120E3F758992D2AAD2FF
:1008E0008ED28AD2AFE4F58DF58B75FCEEC2003066
:1008F00000030209F1D3E50B9414E50A94005005B6
:10090000D200120E0820000A120E1B7F907E0112E8
:100910000E05120DD43002FDC202D3E50B9414E58E
:100920000A940050047F0180027F002000047E01B1
:1009300080027E00EF5E60097A0D7999120D3FD238
:10094000003000030209E475FBEA7F907E01120D7E
:1009500071120DD43002FDC202D3E50B9428E50AD2
:100960009400402E120E1B7F587E02120D71120E43
:100970002D7FE80E120E05120E1B7F987E08120DB9
:1009800071120E087BFF7A0D799B7F84120D430252
:10099000080BD3E50B940FE50A9400501E120E3697
:1009A000D3E50B9511E50A94005010120DD43002D6
:1009B000FD120DCF3002FDC20280E5C3E50B940DA0
:1009C000E50A9400401E120E2DC3E50B9511E50AB1
:1009D00094004010120DD43002FD120DCF3002FDF4
:1009E000C20280E575FBF47F647E00120D7102087F
:1009F000EF30000A75FBEA7FFA7E00120D712000CD
:100A0000030208EDE4F510120E367BFF7A0D79AF84
:100A10007F84120D43E510C39402501D120DD43093
:100A200002FD120DCF3002FDC202D3E50B9511E598
:100A30000A940040E0051080DC75FBF4C200120E41
:030A40000880BB70
:03000000020B8070
:0C0B8000787FE4F6D8FD758120020BC7D9
:100AEC00BB010689828A83E0225002E722BBFE0208
:090AFC00E32289828A83E493223B
:100B0500BC000BBE0029EF8DF084FFADF022E4CCD4
:100B1500F875F008EF2FFFEE33FEEC33FCEE9DEC9D
:100B2500984005FCEE9DFE0FD5F0E9E4CEFD22EDE3
:100B3500F8F5F0EE8420D21CFEADF075F008EF2F2D
:100B4500FFED33FD4007985006D5F0F222C398FD1E
:050B55000FD5F0EA22BB
:100B5A00D083D082F8E4937012740193700DA3A32A
:100B6A0093F8740193F5828883E47374029368603E
:060B7A00EFA3A3A380DF3E
:100B8C00020800E493A3F8E493A34003F68001F277
:100B9C0008DFF48029E493A3F85407240CC8C3336A
:100BAC00C4540F4420C8834004F456800146F6DF39
:100BBC00E4800B0102040810204080900E47E47E74
:100BCC00019360BCA3FF543F30E509541FFEE4932E
:100BDC00A360010ECF54C025E060A840B8E493A3F5
:100BEC00FAE493A3F8E493A3C8C582C8CAC583CA20
:100BFC00F0A3C8C582C8CAC583CADFE9DEE780BED8
:010E490000A8
:00000001FF
